{
	"data": {
		"bytecode": {
			"linkReferences": {},
			"object": "608060405260028054610100600160681b031916690500000000000f42400017905534801561002c575f80fd5b5060405162001a4e38038062001a4e83398101604081905261004d91610148565b610056336100f9565b5f805460ff60a01b1916905560018055600a60ff821611156100ae5760405162461bcd60e51b815260206004820152600d60248201526c0646966666963756c74793e313609c1b604482015260640160405180910390fd5b6002805460ff191660ff83169081179091556040519081527f4a02118d12f19157ada754d8d6fa389901281468ec77f5597460941b377cac909060200160405180910390a15061016f565b5f80546001600160a01b038381166001600160a01b0319831681178455604051919092169283917f8be0079c531659141344cd1fd0a4f28419497f9722a3daafe3b4186f6b6457e09190a35050565b5f60208284031215610158575f80fd5b815160ff81168114610168575f80fd5b9392505050565b6118d1806200017d5f395ff3fe60806040526004361061011e575f3560e01c80638456cb591161009d578063e2eb41ff11610062578063e2eb41ff14610407578063e8de2ab4146104aa578063f1605b7f146104cc578063f2fde38b14610508578063f8718c5a14610527575f80fd5b80638456cb59146103485780638da5cb5b1461035c5780639b9735d814610382578063b2118a8d146103b0578063b8221bc4146103cf575f80fd5b80633f4ba83a116100e35780633f4ba83a146101cc57806358220236146101e05780635c12cd4b146101ff5780635c975abb1461030b578063715018a614610334575f80fd5b8063099a04e51461012957806319cae4621461014a5780631be3e28b1461017a57806330923fef1461018e5780633c9799a9146101ad575f80fd5b3661012557005b5f80fd5b348015610134575f80fd5b50610148610143366004611596565b610546565b005b348015610155575f80fd5b506002546101639060ff1681565b60405160ff90911681526020015b60405180910390f35b348015610185575f80fd5b5061014861063d565b348015610199575f80fd5b506101486101a83660046115db565b6106a3565b3480156101b8575f80fd5b506101486101c73660046115fb565b610749565b3480156101d7575f80fd5b50610148610a26565b3480156101eb575f80fd5b506101486101fa366004611645565b610a38565b34801561020a575f80fd5b506102b5610219366004611665565b6040805160a0810182525f80825260208201819052918101829052606081018290526080810191909152506001600160a01b03165f90815260036020908152604091829020825160a08101845281546001600160401b038082168352600160401b820481169483019490945263ffffffff600160801b82041694820194909452600160a01b909304909116606083015260010154608082015290565b60405161017191905f60a0820190506001600160401b0380845116835280602085015116602084015263ffffffff6040850151166040840152806060850151166060840152506080830151608083015292915050565b348015610316575f80fd5b505f54600160a01b900460ff165b6040519015158152602001610171565b34801561033f575f80fd5b50610148610ac6565b348015610353575f80fd5b50610148610ad7565b348015610367575f80fd5b505f546040516001600160a01b039091168152602001610171565b34801561038d575f80fd5b5061032461039c366004611680565b60046020525f908152604090205460ff1681565b3480156103bb575f80fd5b506101486103ca366004611697565b610ae7565b3480156103da575f80fd5b506002546103f290600160481b900463ffffffff1681565b60405163ffffffff9091168152602001610171565b348015610412575f80fd5b50610469610421366004611665565b60036020525f9081526040902080546001909101546001600160401b0380831692600160401b810482169263ffffffff600160801b83041692600160a01b9092049091169085565b604080516001600160401b039687168152948616602086015263ffffffff90931692840192909252929092166060820152608081019190915260a001610171565b3480156104b5575f80fd5b506104be610b58565b6040516101719291906116d5565b3480156104d7575f80fd5b506002546104f09061010090046001600160401b031681565b6040516001600160401b039091168152602001610171565b348015610513575f80fd5b50610148610522366004611665565b610c0e565b348015610532575f80fd5b50610148610541366004611742565b610c87565b61054e610ce9565b610556610d42565b6001600160a01b03821661059e5760405162461bcd60e51b8152600401610595906020808252600490820152630746f3d360e41b604082015260600190565b60405180910390fd5b5f826001600160a01b0316826040515f6040518083038185875af1925050503d805f81146105e7576040519150601f19603f3d011682016040523d82523d5f602084013e6105ec565b606091505b505090508061062f5760405162461bcd60e51b815260206004820152600f60248201526e195d1a081e19995c8819985a5b1959608a1b6044820152606401610595565b5061063960018055565b5050565b610645610ce9565b5f60058190556006819055600781905560088190556009555f600a819055600b55604080515f80825260ff6020830152917f461679441452a1d8c0e4c68212e6ebaadf7a1f75512bec9a6c4cab452d1953f6910160405180910390a2565b6106ab610ce9565b5f816001600160401b0316116106eb5760405162461bcd60e51b815260206004820152600560248201526406d61783d360dc1b6044820152606401610595565b6002805468ffffffffffffffff0019166101006001600160401b038416908102919091179091556040519081527ff471e9cd0c1f5813ecb5b826d5228e530595bc099b56fe6ca3815c75b18a97db906020015b60405180910390a150565b610751610d9b565b6002546001600160401b03610100909104811690851611156107a15760405162461bcd60e51b81526020600482015260096024820152680e6c6dee4ca7cdac2f60bb1b6044820152606401610595565b816001600160401b0316816001600160401b031610156107ee5760405162461bcd60e51b81526020600482015260086024820152676261642074696d6560c01b6044820152606401610595565b5f8381526004602052604090205460ff16156108395760405162461bcd60e51b815260206004820152600a6024820152691c9d5b9259081d5cd95960b21b6044820152606401610595565b335f908152600360205260409020600254600160481b900463ffffffff161580159061087557508054600160a01b90046001600160401b031615155b156108e95760025481546108a691600160481b900463ffffffff1690600160a01b90046001600160401b0316611779565b6001600160401b03164210156108e95760405162461bcd60e51b815260206004820152600860248201526731b7b7b63237bbb760c11b6044820152606401610595565b5f848152600460205260409020805460ff19166001908117909155815482820186905563ffffffff600160801b426001600160401b03908116600160a01b0267ffffffffffffffff60a01b198b8316600160401b8102919091167fffffffff0000000000000000ffffffff0000000000000000ffffffffffffffff87161791909117838104851690960190931690910263ffffffff60801b199094169390931784559116908110156109b957815467ffffffffffffffff19166001600160401b0387161782556109b93387610de7565b600254604080516001600160401b03898116825260ff909316602082015286831681830152858316606082015242909216608083015251869133917f62723aa95bf5ebe3c5503b67fed706f87c7b531bc822edfdd8c203b796dc69da9181900360a00190a3505050505050565b610a2e610ce9565b610a36611181565b565b610a40610ce9565b600a8160ff161115610a845760405162461bcd60e51b815260206004820152600d60248201526c0646966666963756c74793e313609c1b6044820152606401610595565b6002805460ff191660ff83169081179091556040519081527f4a02118d12f19157ada754d8d6fa389901281468ec77f5597460941b377cac909060200161073e565b610ace610ce9565b610a365f6111d5565b610adf610ce9565b610a36611224565b610aef610ce9565b610af7610d42565b6001600160a01b038216610b365760405162461bcd60e51b8152600401610595906020808252600490820152630746f3d360e41b604082015260600190565b610b4a6001600160a01b0384168383611266565b610b5360018055565b505050565b610b60611564565b610b68611564565b6040805160a0810191829052600591600a91908390819081845b81546001600160a01b03168152600190910190602001808311610b825750506040805160a0810191829052949650859350600592509050825f855b82829054906101000a90046001600160401b03166001600160401b031681526020019060080190602082600701049283019260010382029150808411610bbd57905050505050509050915091509091565b610c16610ce9565b6001600160a01b038116610c7b5760405162461bcd60e51b815260206004820152602660248201527f4f776e61626c653a206e6577206f776e657220697320746865207a65726f206160448201526564647265737360d01b6064820152608401610595565b610c84816111d5565b50565b610c8f610ce9565b600280546cffffffff0000000000000000001916600160481b63ffffffff8416908102919091179091556040519081527ff5186c7e93788b2baf1137980b313999981bee8f6d50232f3a45b79806c466169060200161073e565b5f546001600160a01b03163314610a365760405162461bcd60e51b815260206004820181905260248201527f4f776e61626c653a2063616c6c6572206973206e6f7420746865206f776e65726044820152606401610595565b600260015403610d945760405162461bcd60e51b815260206004820152601f60248201527f5265656e7472616e637947756172643a207265656e7472616e742063616c6c006044820152606401610595565b6002600155565b5f54600160a01b900460ff1615610a365760405162461bcd60e51b815260206004820152601060248201526f14185d5cd8589b194e881c185d5cd95960821b6044820152606401610595565b5f5b6005811015610f4d57826001600160a01b031660058260058110610e0f57610e0f6117a0565b01546001600160a01b031603610f3b57805b6004811015610f14576005610e378260016117b4565b60058110610e4757610e476117a0565b01546001600160a01b0316600582818110610e6457610e646117a0565b0180546001600160a01b0319166001600160a01b0392909216919091179055600a610e908260016117b4565b60058110610ea057610ea06117a0565b600491828204019190066008029054906101000a90046001600160401b0316600a8260058110610ed257610ed26117a0565b600491828204019190066008026101000a8154816001600160401b0302191690836001600160401b031602179055508080610f0c906117cd565b915050610e21565b50600980546001600160a01b0319169055600b805467ffffffffffffffff19169055610f4d565b80610f45816117cd565b915050610de9565b5060ff5f5b600581101561112c57600a8160058110610f6e57610f6e6117a0565b600491828204019190066008029054906101000a90046001600160401b03166001600160401b0316836001600160401b0316111561111a5760045b8181111561109b576005610fbe6001836117e5565b60058110610fce57610fce6117a0565b01546001600160a01b0316600582818110610feb57610feb6117a0565b0180546001600160a01b0319166001600160a01b0392909216919091179055600a6110176001836117e5565b60058110611027576110276117a0565b600491828204019190066008029054906101000a90046001600160401b0316600a8260058110611059576110596117a0565b600491828204019190066008026101000a8154816001600160401b0302191690836001600160401b031602179055508080611093906117f8565b915050610fa9565b5083600582600581106110b0576110b06117a0565b0180546001600160a01b0319166001600160a01b039290921691909117905582600a82600581106110e3576110e36117a0565b600491828204019190066008026101000a8154816001600160401b0302191690836001600160401b0316021790555080915061112c565b80611124816117cd565b915050610f52565b50604080516001600160401b038416815260ff831660208201526001600160a01b038516917f461679441452a1d8c0e4c68212e6ebaadf7a1f75512bec9a6c4cab452d1953f6910160405180910390a2505050565b6111896112b8565b5f805460ff60a01b191690557f5db9ee0a495bf2e6ff9c91a7834c1ba4fdd244a5e8aa4e537bd38aeae4b073aa335b6040516001600160a01b03909116815260200160405180910390a1565b5f80546001600160a01b038381166001600160a01b0319831681178455604051919092169283917f8be0079c531659141344cd1fd0a4f28419497f9722a3daafe3b4186f6b6457e09190a35050565b61122c610d9b565b5f805460ff60a01b1916600160a01b1790557f62e78cea01bee320cd4e420270b5ea74000d11b0c9f74754ebdbfc544b05a2586111b83390565b604080516001600160a01b038416602482015260448082018490528251808303909101815260649091019091526020810180516001600160e01b031663a9059cbb60e01b179052610b53908490611307565b5f54600160a01b900460ff16610a365760405162461bcd60e51b815260206004820152601460248201527314185d5cd8589b194e881b9bdd081c185d5cd95960621b6044820152606401610595565b5f61135b826040518060400160405280602081526020017f5361666545524332303a206c6f772d6c6576656c2063616c6c206661696c6564815250856001600160a01b03166113da9092919063ffffffff16565b905080515f148061137b57508080602001905181019061137b919061180d565b610b535760405162461bcd60e51b815260206004820152602a60248201527f5361666545524332303a204552433230206f7065726174696f6e20646964206e6044820152691bdd081cdd58d8d9595960b21b6064820152608401610595565b60606113e884845f856113f0565b949350505050565b6060824710156114515760405162461bcd60e51b815260206004820152602660248201527f416464726573733a20696e73756666696369656e742062616c616e636520666f6044820152651c8818d85b1b60d21b6064820152608401610595565b5f80866001600160a01b0316858760405161146c919061184e565b5f6040518083038185875af1925050503d805f81146114a6576040519150601f19603f3d011682016040523d82523d5f602084013e6114ab565b606091505b50915091506114bc878383876114c7565b979650505050505050565b606083156115355782515f0361152e576001600160a01b0385163b61152e5760405162461bcd60e51b815260206004820152601d60248201527f416464726573733a2063616c6c20746f206e6f6e2d636f6e74726163740000006044820152606401610595565b50816113e8565b6113e8838381511561154a5781518083602001fd5b8060405162461bcd60e51b81526004016105959190611869565b6040518060a001604052806005906020820280368337509192915050565b6001600160a01b0381168114610c84575f80fd5b5f80604083850312156115a7575f80fd5b82356115b281611582565b946020939093013593505050565b80356001600160401b03811681146115d6575f80fd5b919050565b5f602082840312156115eb575f80fd5b6115f4826115c0565b9392505050565b5f805f806080858703121561160e575f80fd5b611617856115c0565b93506020850135925061162c604086016115c0565b915061163a606086016115c0565b905092959194509250565b5f60208284031215611655575f80fd5b813560ff811681146115f4575f80fd5b5f60208284031215611675575f80fd5b81356115f481611582565b5f60208284031215611690575f80fd5b5035919050565b5f805f606084860312156116a9575f80fd5b83356116b481611582565b925060208401356116c481611582565b929592945050506040919091013590565b610140810181845f5b60058110156117065781516001600160a01b03168352602092830192909101906001016116de565b50505060a08201835f5b60058110156117385781516001600160401b0316835260209283019290910190600101611710565b5050509392505050565b5f60208284031215611752575f80fd5b813563ffffffff811681146115f4575f80fd5b634e487b7160e01b5f52601160045260245ffd5b6001600160401b0381811683821601908082111561179957611799611765565b5092915050565b634e487b7160e01b5f52603260045260245ffd5b808201808211156117c7576117c7611765565b92915050565b5f600182016117de576117de611765565b5060010190565b818103818111156117c7576117c7611765565b5f8161180657611806611765565b505f190190565b5f6020828403121561181d575f80fd5b815180151581146115f4575f80fd5b5f5b8381101561184657818101518382015260200161182e565b50505f910152565b5f825161185f81846020870161182c565b9190910192915050565b602081525f825180602084015261188781604085016020870161182c565b601f01601f1916919091016040019291505056fea26469706673582212201772e28a03d8d2f8f117de7838c8c1bb409eca28a49c825296ed0b61d6042f0e64736f6c63430008140033",
			"opcodes": "PUSH1 0x80 PUSH1 0x40 MSTORE PUSH1 0x2 DUP1 SLOAD PUSH2 0x100 PUSH1 0x1 PUSH1 0x68 SHL SUB NOT AND PUSH10 0x500000000000F424000 OR SWAP1 SSTORE CALLVALUE DUP1 ISZERO PUSH2 0x2C JUMPI PUSH0 DUP1 REVERT JUMPDEST POP PUSH1 0x40 MLOAD PUSH3 0x1A4E CODESIZE SUB DUP1 PUSH3 0x1A4E DUP4 CODECOPY DUP2 ADD PUSH1 0x40 DUP2 SWAP1 MSTORE PUSH2 0x4D SWAP2 PUSH2 0x148 JUMP JUMPDEST PUSH2 0x56 CALLER PUSH2 0xF9 JUMP JUMPDEST PUSH0 DUP1 SLOAD PUSH1 0xFF PUSH1 0xA0 SHL NOT AND SWAP1 SSTORE PUSH1 0x1 DUP1 SSTORE PUSH1 0xA PUSH1 0xFF DUP3 AND GT ISZERO PUSH2 0xAE JUMPI PUSH1 0x40 MLOAD PUSH3 0x461BCD PUSH1 0xE5 SHL DUP2 MSTORE PUSH1 0x20 PUSH1 0x4 DUP3 ADD MSTORE PUSH1 0xD PUSH1 0x24 DUP3 ADD MSTORE PUSH13 0x646966666963756C74793E313 PUSH1 0x9C SHL PUSH1 0x44 DUP3 ADD MSTORE PUSH1 0x64 ADD PUSH1 0x40 MLOAD DUP1 SWAP2 SUB SWAP1 REVERT JUMPDEST PUSH1 0x2 DUP1 SLOAD PUSH1 0xFF NOT AND PUSH1 0xFF DUP4 AND SWAP1 DUP2 OR SWAP1 SWAP2 SSTORE PUSH1 0x40 MLOAD SWAP1 DUP2 MSTORE PUSH32 0x4A02118D12F19157ADA754D8D6FA389901281468EC77F5597460941B377CAC90 SWAP1 PUSH1 0x20 ADD PUSH1 0x40 MLOAD DUP1 SWAP2 SUB SWAP1 LOG1 POP PUSH2 0x16F JUMP JUMPDEST PUSH0 DUP1 SLOAD PUSH1 0x1 PUSH1 0x1 PUSH1 0xA0 SHL SUB DUP4 DUP2 AND PUSH1 0x1 PUSH1 0x1 PUSH1 0xA0 SHL SUB NOT DUP4 AND DUP2 OR DUP5 SSTORE PUSH1 0x40 MLOAD SWAP2 SWAP1 SWAP3 AND SWAP3 DUP4 SWAP2 PUSH32 0x8BE0079C531659141344CD1FD0A4F28419497F9722A3DAAFE3B4186F6B6457E0 SWAP2 SWAP1 LOG3 POP POP JUMP JUMPDEST PUSH0 PUSH1 0x20 DUP3 DUP5 SUB SLT ISZERO PUSH2 0x158 JUMPI PUSH0 DUP1 REVERT JUMPDEST DUP2 MLOAD PUSH1 0xFF DUP2 AND DUP2 EQ PUSH2 0x168 JUMPI PUSH0 DUP1 REVERT JUMPDEST SWAP4 SWAP3 POP POP POP JUMP JUMPDEST PUSH2 0x18D1 DUP1 PUSH3 0x17D PUSH0 CODECOPY PUSH0 RETURN INVALID PUSH1 0x80 PUSH1 0x40 MSTORE PUSH1 0x4 CALLDATASIZE LT PUSH2 0x11E JUMPI PUSH0 CALLDATALOAD PUSH1 0xE0 SHR DUP1 PUSH4 0x8456CB59 GT PUSH2 0x9D JUMPI DUP1 PUSH4 0xE2EB41FF GT PUSH2 0x62 JUMPI DUP1 PUSH4 0xE2EB41FF EQ PUSH2 0x407 JUMPI DUP1 PUSH4 0xE8DE2AB4 EQ PUSH2 0x4AA JUMPI DUP1 PUSH4 0xF1605B7F EQ PUSH2 0x4CC JUMPI DUP1 PUSH4 0xF2FDE38B EQ PUSH2 0x508 JUMPI DUP1 PUSH4 0xF8718C5A EQ PUSH2 0x527 JUMPI PUSH0 DUP1 REVERT JUMPDEST DUP1 PUSH4 0x8456CB59 EQ PUSH2 0x348 JUMPI DUP1 PUSH4 0x8DA5CB5B EQ PUSH2 0x35C JUMPI DUP1 PUSH4 0x9B9735D8 EQ PUSH2 0x382 JUMPI DUP1 PUSH4 0xB2118A8D EQ PUSH2 0x3B0 JUMPI DUP1 PUSH4 0xB8221BC4 EQ PUSH2 0x3CF JUMPI PUSH0 DUP1 REVERT JUMPDEST DUP1 PUSH4 0x3F4BA83A GT PUSH2 0xE3 JUMPI DUP1 PUSH4 0x3F4BA83A EQ PUSH2 0x1CC JUMPI DUP1 PUSH4 0x58220236 EQ PUSH2 0x1E0 JUMPI DUP1 PUSH4 0x5C12CD4B EQ PUSH2 0x1FF JUMPI DUP1 PUSH4 0x5C975ABB EQ PUSH2 0x30B JUMPI DUP1 PUSH4 0x715018A6 EQ PUSH2 0x334 JUMPI PUSH0 DUP1 REVERT JUMPDEST DUP1 PUSH4 0x99A04E5 EQ PUSH2 0x129 JUMPI DUP1 PUSH4 0x19CAE462 EQ PUSH2 0x14A JUMPI DUP1 PUSH4 0x1BE3E28B EQ PUSH2 0x17A JUMPI DUP1 PUSH4 0x30923FEF EQ PUSH2 0x18E JUMPI DUP1 PUSH4 0x3C9799A9 EQ PUSH2 0x1AD JUMPI PUSH0 DUP1 REVERT JUMPDEST CALLDATASIZE PUSH2 0x125 JUMPI STOP JUMPDEST PUSH0 DUP1 REVERT JUMPDEST CALLVALUE DUP1 ISZERO PUSH2 0x134 JUMPI PUSH0 DUP1 REVERT JUMPDEST POP PUSH2 0x148 PUSH2 0x143 CALLDATASIZE PUSH1 0x4 PUSH2 0x1596 JUMP JUMPDEST PUSH2 0x546 JUMP JUMPDEST STOP JUMPDEST CALLVALUE DUP1 ISZERO PUSH2 0x155 JUMPI PUSH0 DUP1 REVERT JUMPDEST POP PUSH1 0x2 SLOAD PUSH2 0x163 SWAP1 PUSH1 0xFF AND DUP2 JUMP JUMPDEST PUSH1 0x40 MLOAD PUSH1 0xFF SWAP1 SWAP2 AND DUP2 MSTORE PUSH1 0x20 ADD JUMPDEST PUSH1 0x40 MLOAD DUP1 SWAP2 SUB SWAP1 RETURN JUMPDEST CALLVALUE DUP1 ISZERO PUSH2 0x185 JUMPI PUSH0 DUP1 REVERT JUMPDEST POP PUSH2 0x148 PUSH2 0x63D JUMP JUMPDEST CALLVALUE DUP1 ISZERO PUSH2 0x199 JUMPI PUSH0 DUP1 REVERT JUMPDEST POP PUSH2 0x148 PUSH2 0x1A8 CALLDATASIZE PUSH1 0x4 PUSH2 0x15DB JUMP JUMPDEST PUSH2 0x6A3 JUMP JUMPDEST CALLVALUE DUP1 ISZERO PUSH2 0x1B8 JUMPI PUSH0 DUP1 REVERT JUMPDEST POP PUSH2 0x148 PUSH2 0x1C7 CALLDATASIZE PUSH1 0x4 PUSH2 0x15FB JUMP JUMPDEST PUSH2 0x749 JUMP JUMPDEST CALLVALUE DUP1 ISZERO PUSH2 0x1D7 JUMPI PUSH0 DUP1 REVERT JUMPDEST POP PUSH2 0x148 PUSH2 0xA26 JUMP JUMPDEST CALLVALUE DUP1 ISZERO PUSH2 0x1EB JUMPI PUSH0 DUP1 REVERT JUMPDEST POP PUSH2 0x148 PUSH2 0x1FA CALLDATASIZE PUSH1 0x4 PUSH2 0x1645 JUMP JUMPDEST PUSH2 0xA38 JUMP JUMPDEST CALLVALUE DUP1 ISZERO PUSH2 0x20A JUMPI PUSH0 DUP1 REVERT JUMPDEST POP PUSH2 0x2B5 PUSH2 0x219 CALLDATASIZE PUSH1 0x4 PUSH2 0x1665 JUMP JUMPDEST PUSH1 0x40 DUP1 MLOAD PUSH1 0xA0 DUP2 ADD DUP3 MSTORE PUSH0 DUP1 DUP3 MSTORE PUSH1 0x20 DUP3 ADD DUP2 SWAP1 MSTORE SWAP2 DUP2 ADD DUP3 SWAP1 MSTORE PUSH1 0x60 DUP2 ADD DUP3 SWAP1 MSTORE PUSH1 0x80 DUP2 ADD SWAP2 SWAP1 SWAP2 MSTORE POP PUSH1 0x1 PUSH1 0x1 PUSH1 0xA0 SHL SUB AND PUSH0 SWAP1 DUP2 MSTORE PUSH1 0x3 PUSH1 0x20 SWAP1 DUP2 MSTORE PUSH1 0x40 SWAP2 DUP3 SWAP1 KECCAK256 DUP3 MLOAD PUSH1 0xA0 DUP2 ADD DUP5 MSTORE DUP2 SLOAD PUSH1 0x1 PUSH1 0x1 PUSH1 0x40 SHL SUB DUP1 DUP3 AND DUP4 MSTORE PUSH1 0x1 PUSH1 0x40 SHL DUP3 DIV DUP2 AND SWAP5 DUP4 ADD SWAP5 SWAP1 SWAP5 MSTORE PUSH4 0xFFFFFFFF PUSH1 0x1 PUSH1 0x80 SHL DUP3 DIV AND SWAP5 DUP3 ADD SWAP5 SWAP1 SWAP5 MSTORE PUSH1 0x1 PUSH1 0xA0 SHL SWAP1 SWAP4 DIV SWAP1 SWAP2 AND PUSH1 0x60 DUP4 ADD MSTORE PUSH1 0x1 ADD SLOAD PUSH1 0x80 DUP3 ADD MSTORE SWAP1 JUMP JUMPDEST PUSH1 0x40 MLOAD PUSH2 0x171 SWAP2 SWAP1 PUSH0 PUSH1 0xA0 DUP3 ADD SWAP1 POP PUSH1 0x1 PUSH1 0x1 PUSH1 0x40 SHL SUB DUP1 DUP5 MLOAD AND DUP4 MSTORE DUP1 PUSH1 0x20 DUP6 ADD MLOAD AND PUSH1 0x20 DUP5 ADD MSTORE PUSH4 0xFFFFFFFF PUSH1 0x40 DUP6 ADD MLOAD AND PUSH1 0x40 DUP5 ADD MSTORE DUP1 PUSH1 0x60 DUP6 ADD MLOAD AND PUSH1 0x60 DUP5 ADD MSTORE POP PUSH1 0x80 DUP4 ADD MLOAD PUSH1 0x80 DUP4 ADD MSTORE SWAP3 SWAP2 POP POP JUMP JUMPDEST CALLVALUE DUP1 ISZERO PUSH2 0x316 JUMPI PUSH0 DUP1 REVERT JUMPDEST POP PUSH0 SLOAD PUSH1 0x1 PUSH1 0xA0 SHL SWAP1 DIV PUSH1 0xFF AND JUMPDEST PUSH1 0x40 MLOAD SWAP1 ISZERO ISZERO DUP2 MSTORE PUSH1 0x20 ADD PUSH2 0x171 JUMP JUMPDEST CALLVALUE DUP1 ISZERO PUSH2 0x33F JUMPI PUSH0 DUP1 REVERT JUMPDEST POP PUSH2 0x148 PUSH2 0xAC6 JUMP JUMPDEST CALLVALUE DUP1 ISZERO PUSH2 0x353 JUMPI PUSH0 DUP1 REVERT JUMPDEST POP PUSH2 0x148 PUSH2 0xAD7 JUMP JUMPDEST CALLVALUE DUP1 ISZERO PUSH2 0x367 JUMPI PUSH0 DUP1 REVERT JUMPDEST POP PUSH0 SLOAD PUSH1 0x40 MLOAD PUSH1 0x1 PUSH1 0x1 PUSH1 0xA0 SHL SUB SWAP1 SWAP2 AND DUP2 MSTORE PUSH1 0x20 ADD PUSH2 0x171 JUMP JUMPDEST CALLVALUE DUP1 ISZERO PUSH2 0x38D JUMPI PUSH0 DUP1 REVERT JUMPDEST POP PUSH2 0x324 PUSH2 0x39C CALLDATASIZE PUSH1 0x4 PUSH2 0x1680 JUMP JUMPDEST PUSH1 0x4 PUSH1 0x20 MSTORE PUSH0 SWAP1 DUP2 MSTORE PUSH1 0x40 SWAP1 KECCAK256 SLOAD PUSH1 0xFF AND DUP2 JUMP JUMPDEST CALLVALUE DUP1 ISZERO PUSH2 0x3BB JUMPI PUSH0 DUP1 REVERT JUMPDEST POP PUSH2 0x148 PUSH2 0x3CA CALLDATASIZE PUSH1 0x4 PUSH2 0x1697 JUMP JUMPDEST PUSH2 0xAE7 JUMP JUMPDEST CALLVALUE DUP1 ISZERO PUSH2 0x3DA JUMPI PUSH0 DUP1 REVERT JUMPDEST POP PUSH1 0x2 SLOAD PUSH2 0x3F2 SWAP1 PUSH1 0x1 PUSH1 0x48 SHL SWAP1 DIV PUSH4 0xFFFFFFFF AND DUP2 JUMP JUMPDEST PUSH1 0x40 MLOAD PUSH4 0xFFFFFFFF SWAP1 SWAP2 AND DUP2 MSTORE PUSH1 0x20 ADD PUSH2 0x171 JUMP JUMPDEST CALLVALUE DUP1 ISZERO PUSH2 0x412 JUMPI PUSH0 DUP1 REVERT JUMPDEST POP PUSH2 0x469 PUSH2 0x421 CALLDATASIZE PUSH1 0x4 PUSH2 0x1665 JUMP JUMPDEST PUSH1 0x3 PUSH1 0x20 MSTORE PUSH0 SWAP1 DUP2 MSTORE PUSH1 0x40 SWAP1 KECCAK256 DUP1 SLOAD PUSH1 0x1 SWAP1 SWAP2 ADD SLOAD PUSH1 0x1 PUSH1 0x1 PUSH1 0x40 SHL SUB DUP1 DUP4 AND SWAP3 PUSH1 0x1 PUSH1 0x40 SHL DUP2 DIV DUP3 AND SWAP3 PUSH4 0xFFFFFFFF PUSH1 0x1 PUSH1 0x80 SHL DUP4 DIV AND SWAP3 PUSH1 0x1 PUSH1 0xA0 SHL SWAP1 SWAP3 DIV SWAP1 SWAP2 AND SWAP1 DUP6 JUMP JUMPDEST PUSH1 0x40 DUP1 MLOAD PUSH1 0x1 PUSH1 0x1 PUSH1 0x40 SHL SUB SWAP7 DUP8 AND DUP2 MSTORE SWAP5 DUP7 AND PUSH1 0x20 DUP7 ADD MSTORE PUSH4 0xFFFFFFFF SWAP1 SWAP4 AND SWAP3 DUP5 ADD SWAP3 SWAP1 SWAP3 MSTORE SWAP3 SWAP1 SWAP3 AND PUSH1 0x60 DUP3 ADD MSTORE PUSH1 0x80 DUP2 ADD SWAP2 SWAP1 SWAP2 MSTORE PUSH1 0xA0 ADD PUSH2 0x171 JUMP JUMPDEST CALLVALUE DUP1 ISZERO PUSH2 0x4B5 JUMPI PUSH0 DUP1 REVERT JUMPDEST POP PUSH2 0x4BE PUSH2 0xB58 JUMP JUMPDEST PUSH1 0x40 MLOAD PUSH2 0x171 SWAP3 SWAP2 SWAP1 PUSH2 0x16D5 JUMP JUMPDEST CALLVALUE DUP1 ISZERO PUSH2 0x4D7 JUMPI PUSH0 DUP1 REVERT JUMPDEST POP PUSH1 0x2 SLOAD PUSH2 0x4F0 SWAP1 PUSH2 0x100 SWAP1 DIV PUSH1 0x1 PUSH1 0x1 PUSH1 0x40 SHL SUB AND DUP2 JUMP JUMPDEST PUSH1 0x40 MLOAD PUSH1 0x1 PUSH1 0x1 PUSH1 0x40 SHL SUB SWAP1 SWAP2 AND DUP2 MSTORE PUSH1 0x20 ADD PUSH2 0x171 JUMP JUMPDEST CALLVALUE DUP1 ISZERO PUSH2 0x513 JUMPI PUSH0 DUP1 REVERT JUMPDEST POP PUSH2 0x148 PUSH2 0x522 CALLDATASIZE PUSH1 0x4 PUSH2 0x1665 JUMP JUMPDEST PUSH2 0xC0E JUMP JUMPDEST CALLVALUE DUP1 ISZERO PUSH2 0x532 JUMPI PUSH0 DUP1 REVERT JUMPDEST POP PUSH2 0x148 PUSH2 0x541 CALLDATASIZE PUSH1 0x4 PUSH2 0x1742 JUMP JUMPDEST PUSH2 0xC87 JUMP JUMPDEST PUSH2 0x54E PUSH2 0xCE9 JUMP JUMPDEST PUSH2 0x556 PUSH2 0xD42 JUMP JUMPDEST PUSH1 0x1 PUSH1 0x1 PUSH1 0xA0 SHL SUB DUP3 AND PUSH2 0x59E JUMPI PUSH1 0x40 MLOAD PUSH3 0x461BCD PUSH1 0xE5 SHL DUP2 MSTORE PUSH1 0x4 ADD PUSH2 0x595 SWAP1 PUSH1 0x20 DUP1 DUP3 MSTORE PUSH1 0x4 SWAP1 DUP3 ADD MSTORE PUSH4 0x746F3D3 PUSH1 0xE4 SHL PUSH1 0x40 DUP3 ADD MSTORE PUSH1 0x60 ADD SWAP1 JUMP JUMPDEST PUSH1 0x40 MLOAD DUP1 SWAP2 SUB SWAP1 REVERT JUMPDEST PUSH0 DUP3 PUSH1 0x1 PUSH1 0x1 PUSH1 0xA0 SHL SUB AND DUP3 PUSH1 0x40 MLOAD PUSH0 PUSH1 0x40 MLOAD DUP1 DUP4 SUB DUP2 DUP6 DUP8 GAS CALL SWAP3 POP POP POP RETURNDATASIZE DUP1 PUSH0 DUP2 EQ PUSH2 0x5E7 JUMPI PUSH1 0x40 MLOAD SWAP2 POP PUSH1 0x1F NOT PUSH1 0x3F RETURNDATASIZE ADD AND DUP3 ADD PUSH1 0x40 MSTORE RETURNDATASIZE DUP3 MSTORE RETURNDATASIZE PUSH0 PUSH1 0x20 DUP5 ADD RETURNDATACOPY PUSH2 0x5EC JUMP JUMPDEST PUSH1 0x60 SWAP2 POP JUMPDEST POP POP SWAP1 POP DUP1 PUSH2 0x62F JUMPI PUSH1 0x40 MLOAD PUSH3 0x461BCD PUSH1 0xE5 SHL DUP2 MSTORE PUSH1 0x20 PUSH1 0x4 DUP3 ADD MSTORE PUSH1 0xF PUSH1 0x24 DUP3 ADD MSTORE PUSH15 0x195D1A081E19995C8819985A5B1959 PUSH1 0x8A SHL PUSH1 0x44 DUP3 ADD MSTORE PUSH1 0x64 ADD PUSH2 0x595 JUMP JUMPDEST POP PUSH2 0x639 PUSH1 0x1 DUP1 SSTORE JUMP JUMPDEST POP POP JUMP JUMPDEST PUSH2 0x645 PUSH2 0xCE9 JUMP JUMPDEST PUSH0 PUSH1 0x5 DUP2 SWAP1 SSTORE PUSH1 0x6 DUP2 SWAP1 SSTORE PUSH1 0x7 DUP2 SWAP1 SSTORE PUSH1 0x8 DUP2 SWAP1 SSTORE PUSH1 0x9 SSTORE PUSH0 PUSH1 0xA DUP2 SWAP1 SSTORE PUSH1 0xB SSTORE PUSH1 0x40 DUP1 MLOAD PUSH0 DUP1 DUP3 MSTORE PUSH1 0xFF PUSH1 0x20 DUP4 ADD MSTORE SWAP2 PUSH32 0x461679441452A1D8C0E4C68212E6EBAADF7A1F75512BEC9A6C4CAB452D1953F6 SWAP2 ADD PUSH1 0x40 MLOAD DUP1 SWAP2 SUB SWAP1 LOG2 JUMP JUMPDEST PUSH2 0x6AB PUSH2 0xCE9 JUMP JUMPDEST PUSH0 DUP2 PUSH1 0x1 PUSH1 0x1 PUSH1 0x40 SHL SUB AND GT PUSH2 0x6EB JUMPI PUSH1 0x40 MLOAD PUSH3 0x461BCD PUSH1 0xE5 SHL DUP2 MSTORE PUSH1 0x20 PUSH1 0x4 DUP3 ADD MSTORE PUSH1 0x5 PUSH1 0x24 DUP3 ADD MSTORE PUSH5 0x6D61783D3 PUSH1 0xDC SHL PUSH1 0x44 DUP3 ADD MSTORE PUSH1 0x64 ADD PUSH2 0x595 JUMP JUMPDEST PUSH1 0x2 DUP1 SLOAD PUSH9 0xFFFFFFFFFFFFFFFF00 NOT AND PUSH2 0x100 PUSH1 0x1 PUSH1 0x1 PUSH1 0x40 SHL SUB DUP5 AND SWAP1 DUP2 MUL SWAP2 SWAP1 SWAP2 OR SWAP1 SWAP2 SSTORE PUSH1 0x40 MLOAD SWAP1 DUP2 MSTORE PUSH32 0xF471E9CD0C1F5813ECB5B826D5228E530595BC099B56FE6CA3815C75B18A97DB SWAP1 PUSH1 0x20 ADD JUMPDEST PUSH1 0x40 MLOAD DUP1 SWAP2 SUB SWAP1 LOG1 POP JUMP JUMPDEST PUSH2 0x751 PUSH2 0xD9B JUMP JUMPDEST PUSH1 0x2 SLOAD PUSH1 0x1 PUSH1 0x1 PUSH1 0x40 SHL SUB PUSH2 0x100 SWAP1 SWAP2 DIV DUP2 AND SWAP1 DUP6 AND GT ISZERO PUSH2 0x7A1 JUMPI PUSH1 0x40 MLOAD PUSH3 0x461BCD PUSH1 0xE5 SHL DUP2 MSTORE PUSH1 0x20 PUSH1 0x4 DUP3 ADD MSTORE PUSH1 0x9 PUSH1 0x24 DUP3 ADD MSTORE PUSH9 0xE6C6DEE4CA7CDAC2F PUSH1 0xBB SHL PUSH1 0x44 DUP3 ADD MSTORE PUSH1 0x64 ADD PUSH2 0x595 JUMP JUMPDEST DUP2 PUSH1 0x1 PUSH1 0x1 PUSH1 0x40 SHL SUB AND DUP2 PUSH1 0x1 PUSH1 0x1 PUSH1 0x40 SHL SUB AND LT ISZERO PUSH2 0x7EE JUMPI PUSH1 0x40 MLOAD PUSH3 0x461BCD PUSH1 0xE5 SHL DUP2 MSTORE PUSH1 0x20 PUSH1 0x4 DUP3 ADD MSTORE PUSH1 0x8 PUSH1 0x24 DUP3 ADD MSTORE PUSH8 0x6261642074696D65 PUSH1 0xC0 SHL PUSH1 0x44 DUP3 ADD MSTORE PUSH1 0x64 ADD PUSH2 0x595 JUMP JUMPDEST PUSH0 DUP4 DUP2 MSTORE PUSH1 0x4 PUSH1 0x20 MSTORE PUSH1 0x40 SWAP1 KECCAK256 SLOAD PUSH1 0xFF AND ISZERO PUSH2 0x839 JUMPI PUSH1 0x40 MLOAD PUSH3 0x461BCD PUSH1 0xE5 SHL DUP2 MSTORE PUSH1 0x20 PUSH1 0x4 DUP3 ADD MSTORE PUSH1 0xA PUSH1 0x24 DUP3 ADD MSTORE PUSH10 0x1C9D5B9259081D5CD959 PUSH1 0xB2 SHL PUSH1 0x44 DUP3 ADD MSTORE PUSH1 0x64 ADD PUSH2 0x595 JUMP JUMPDEST CALLER PUSH0 SWAP1 DUP2 MSTORE PUSH1 0x3 PUSH1 0x20 MSTORE PUSH1 0x40 SWAP1 KECCAK256 PUSH1 0x2 SLOAD PUSH1 0x1 PUSH1 0x48 SHL SWAP1 DIV PUSH4 0xFFFFFFFF AND ISZERO DUP1 ISZERO SWAP1 PUSH2 0x875 JUMPI POP DUP1 SLOAD PUSH1 0x1 PUSH1 0xA0 SHL SWAP1 DIV PUSH1 0x1 PUSH1 0x1 PUSH1 0x40 SHL SUB AND ISZERO ISZERO JUMPDEST ISZERO PUSH2 0x8E9 JUMPI PUSH1 0x2 SLOAD DUP2 SLOAD PUSH2 0x8A6 SWAP2 PUSH1 0x1 PUSH1 0x48 SHL SWAP1 DIV PUSH4 0xFFFFFFFF AND SWAP1 PUSH1 0x1 PUSH1 0xA0 SHL SWAP1 DIV PUSH1 0x1 PUSH1 0x1 PUSH1 0x40 SHL SUB AND PUSH2 0x1779 JUMP JUMPDEST PUSH1 0x1 PUSH1 0x1 PUSH1 0x40 SHL SUB AND TIMESTAMP LT ISZERO PUSH2 0x8E9 JUMPI PUSH1 0x40 MLOAD PUSH3 0x461BCD PUSH1 0xE5 SHL DUP2 MSTORE PUSH1 0x20 PUSH1 0x4 DUP3 ADD MSTORE PUSH1 0x8 PUSH1 0x24 DUP3 ADD MSTORE PUSH8 0x31B7B7B63237BBB7 PUSH1 0xC1 SHL PUSH1 0x44 DUP3 ADD MSTORE PUSH1 0x64 ADD PUSH2 0x595 JUMP JUMPDEST PUSH0 DUP5 DUP2 MSTORE PUSH1 0x4 PUSH1 0x20 MSTORE PUSH1 0x40 SWAP1 KECCAK256 DUP1 SLOAD PUSH1 0xFF NOT AND PUSH1 0x1 SWAP1 DUP2 OR SWAP1 SWAP2 SSTORE DUP2 SLOAD DUP3 DUP3 ADD DUP7 SWAP1 SSTORE PUSH4 0xFFFFFFFF PUSH1 0x1 PUSH1 0x80 SHL TIMESTAMP PUSH1 0x1 PUSH1 0x1 PUSH1 0x40 SHL SUB SWAP1 DUP2 AND PUSH1 0x1 PUSH1 0xA0 SHL MUL PUSH8 0xFFFFFFFFFFFFFFFF PUSH1 0xA0 SHL NOT DUP12 DUP4 AND PUSH1 0x1 PUSH1 0x40 SHL DUP2 MUL SWAP2 SWAP1 SWAP2 AND PUSH32 0xFFFFFFFF0000000000000000FFFFFFFF0000000000000000FFFFFFFFFFFFFFFF DUP8 AND OR SWAP2 SWAP1 SWAP2 OR DUP4 DUP2 DIV DUP6 AND SWAP1 SWAP7 ADD SWAP1 SWAP4 AND SWAP1 SWAP2 MUL PUSH4 0xFFFFFFFF PUSH1 0x80 SHL NOT SWAP1 SWAP5 AND SWAP4 SWAP1 SWAP4 OR DUP5 SSTORE SWAP2 AND SWAP1 DUP2 LT ISZERO PUSH2 0x9B9 JUMPI DUP2 SLOAD PUSH8 0xFFFFFFFFFFFFFFFF NOT AND PUSH1 0x1 PUSH1 0x1 PUSH1 0x40 SHL SUB DUP8 AND OR DUP3 SSTORE PUSH2 0x9B9 CALLER DUP8 PUSH2 0xDE7 JUMP JUMPDEST PUSH1 0x2 SLOAD PUSH1 0x40 DUP1 MLOAD PUSH1 0x1 PUSH1 0x1 PUSH1 0x40 SHL SUB DUP10 DUP2 AND DUP3 MSTORE PUSH1 0xFF SWAP1 SWAP4 AND PUSH1 0x20 DUP3 ADD MSTORE DUP7 DUP4 AND DUP2 DUP4 ADD MSTORE DUP6 DUP4 AND PUSH1 0x60 DUP3 ADD MSTORE TIMESTAMP SWAP1 SWAP3 AND PUSH1 0x80 DUP4 ADD MSTORE MLOAD DUP7 SWAP2 CALLER SWAP2 PUSH32 0x62723AA95BF5EBE3C5503B67FED706F87C7B531BC822EDFDD8C203B796DC69DA SWAP2 DUP2 SWAP1 SUB PUSH1 0xA0 ADD SWAP1 LOG3 POP POP POP POP POP POP JUMP JUMPDEST PUSH2 0xA2E PUSH2 0xCE9 JUMP JUMPDEST PUSH2 0xA36 PUSH2 0x1181 JUMP JUMPDEST JUMP JUMPDEST PUSH2 0xA40 PUSH2 0xCE9 JUMP JUMPDEST PUSH1 0xA DUP2 PUSH1 0xFF AND GT ISZERO PUSH2 0xA84 JUMPI PUSH1 0x40 MLOAD PUSH3 0x461BCD PUSH1 0xE5 SHL DUP2 MSTORE PUSH1 0x20 PUSH1 0x4 DUP3 ADD MSTORE PUSH1 0xD PUSH1 0x24 DUP3 ADD MSTORE PUSH13 0x646966666963756C74793E313 PUSH1 0x9C SHL PUSH1 0x44 DUP3 ADD MSTORE PUSH1 0x64 ADD PUSH2 0x595 JUMP JUMPDEST PUSH1 0x2 DUP1 SLOAD PUSH1 0xFF NOT AND PUSH1 0xFF DUP4 AND SWAP1 DUP2 OR SWAP1 SWAP2 SSTORE PUSH1 0x40 MLOAD SWAP1 DUP2 MSTORE PUSH32 0x4A02118D12F19157ADA754D8D6FA389901281468EC77F5597460941B377CAC90 SWAP1 PUSH1 0x20 ADD PUSH2 0x73E JUMP JUMPDEST PUSH2 0xACE PUSH2 0xCE9 JUMP JUMPDEST PUSH2 0xA36 PUSH0 PUSH2 0x11D5 JUMP JUMPDEST PUSH2 0xADF PUSH2 0xCE9 JUMP JUMPDEST PUSH2 0xA36 PUSH2 0x1224 JUMP JUMPDEST PUSH2 0xAEF PUSH2 0xCE9 JUMP JUMPDEST PUSH2 0xAF7 PUSH2 0xD42 JUMP JUMPDEST PUSH1 0x1 PUSH1 0x1 PUSH1 0xA0 SHL SUB DUP3 AND PUSH2 0xB36 JUMPI PUSH1 0x40 MLOAD PUSH3 0x461BCD PUSH1 0xE5 SHL DUP2 MSTORE PUSH1 0x4 ADD PUSH2 0x595 SWAP1 PUSH1 0x20 DUP1 DUP3 MSTORE PUSH1 0x4 SWAP1 DUP3 ADD MSTORE PUSH4 0x746F3D3 PUSH1 0xE4 SHL PUSH1 0x40 DUP3 ADD MSTORE PUSH1 0x60 ADD SWAP1 JUMP JUMPDEST PUSH2 0xB4A PUSH1 0x1 PUSH1 0x1 PUSH1 0xA0 SHL SUB DUP5 AND DUP4 DUP4 PUSH2 0x1266 JUMP JUMPDEST PUSH2 0xB53 PUSH1 0x1 DUP1 SSTORE JUMP JUMPDEST POP POP POP JUMP JUMPDEST PUSH2 0xB60 PUSH2 0x1564 JUMP JUMPDEST PUSH2 0xB68 PUSH2 0x1564 JUMP JUMPDEST PUSH1 0x40 DUP1 MLOAD PUSH1 0xA0 DUP2 ADD SWAP2 DUP3 SWAP1 MSTORE PUSH1 0x5 SWAP2 PUSH1 0xA SWAP2 SWAP1 DUP4 SWAP1 DUP2 SWAP1 DUP2 DUP5 JUMPDEST DUP2 SLOAD PUSH1 0x1 PUSH1 0x1 PUSH1 0xA0 SHL SUB AND DUP2 MSTORE PUSH1 0x1 SWAP1 SWAP2 ADD SWAP1 PUSH1 0x20 ADD DUP1 DUP4 GT PUSH2 0xB82 JUMPI POP POP PUSH1 0x40 DUP1 MLOAD PUSH1 0xA0 DUP2 ADD SWAP2 DUP3 SWAP1 MSTORE SWAP5 SWAP7 POP DUP6 SWAP4 POP PUSH1 0x5 SWAP3 POP SWAP1 POP DUP3 PUSH0 DUP6 JUMPDEST DUP3 DUP3 SWAP1 SLOAD SWAP1 PUSH2 0x100 EXP SWAP1 DIV PUSH1 0x1 PUSH1 0x1 PUSH1 0x40 SHL SUB AND PUSH1 0x1 PUSH1 0x1 PUSH1 0x40 SHL SUB AND DUP2 MSTORE PUSH1 0x20 ADD SWAP1 PUSH1 0x8 ADD SWAP1 PUSH1 0x20 DUP3 PUSH1 0x7 ADD DIV SWAP3 DUP4 ADD SWAP3 PUSH1 0x1 SUB DUP3 MUL SWAP2 POP DUP1 DUP5 GT PUSH2 0xBBD JUMPI SWAP1 POP POP POP POP POP POP SWAP1 POP SWAP2 POP SWAP2 POP SWAP1 SWAP2 JUMP JUMPDEST PUSH2 0xC16 PUSH2 0xCE9 JUMP JUMPDEST PUSH1 0x1 PUSH1 0x1 PUSH1 0xA0 SHL SUB DUP2 AND PUSH2 0xC7B JUMPI PUSH1 0x40 MLOAD PUSH3 0x461BCD PUSH1 0xE5 SHL DUP2 MSTORE PUSH1 0x20 PUSH1 0x4 DUP3 ADD MSTORE PUSH1 0x26 PUSH1 0x24 DUP3 ADD MSTORE PUSH32 0x4F776E61626C653A206E6577206F776E657220697320746865207A65726F2061 PUSH1 0x44 DUP3 ADD MSTORE PUSH6 0x646472657373 PUSH1 0xD0 SHL PUSH1 0x64 DUP3 ADD MSTORE PUSH1 0x84 ADD PUSH2 0x595 JUMP JUMPDEST PUSH2 0xC84 DUP2 PUSH2 0x11D5 JUMP JUMPDEST POP JUMP JUMPDEST PUSH2 0xC8F PUSH2 0xCE9 JUMP JUMPDEST PUSH1 0x2 DUP1 SLOAD PUSH13 0xFFFFFFFF000000000000000000 NOT AND PUSH1 0x1 PUSH1 0x48 SHL PUSH4 0xFFFFFFFF DUP5 AND SWAP1 DUP2 MUL SWAP2 SWAP1 SWAP2 OR SWAP1 SWAP2 SSTORE PUSH1 0x40 MLOAD SWAP1 DUP2 MSTORE PUSH32 0xF5186C7E93788B2BAF1137980B313999981BEE8F6D50232F3A45B79806C46616 SWAP1 PUSH1 0x20 ADD PUSH2 0x73E JUMP JUMPDEST PUSH0 SLOAD PUSH1 0x1 PUSH1 0x1 PUSH1 0xA0 SHL SUB AND CALLER EQ PUSH2 0xA36 JUMPI PUSH1 0x40 MLOAD PUSH3 0x461BCD PUSH1 0xE5 SHL DUP2 MSTORE PUSH1 0x20 PUSH1 0x4 DUP3 ADD DUP2 SWAP1 MSTORE PUSH1 0x24 DUP3 ADD MSTORE PUSH32 0x4F776E61626C653A2063616C6C6572206973206E6F7420746865206F776E6572 PUSH1 0x44 DUP3 ADD MSTORE PUSH1 0x64 ADD PUSH2 0x595 JUMP JUMPDEST PUSH1 0x2 PUSH1 0x1 SLOAD SUB PUSH2 0xD94 JUMPI PUSH1 0x40 MLOAD PUSH3 0x461BCD PUSH1 0xE5 SHL DUP2 MSTORE PUSH1 0x20 PUSH1 0x4 DUP3 ADD MSTORE PUSH1 0x1F PUSH1 0x24 DUP3 ADD MSTORE PUSH32 0x5265656E7472616E637947756172643A207265656E7472616E742063616C6C00 PUSH1 0x44 DUP3 ADD MSTORE PUSH1 0x64 ADD PUSH2 0x595 JUMP JUMPDEST PUSH1 0x2 PUSH1 0x1 SSTORE JUMP JUMPDEST PUSH0 SLOAD PUSH1 0x1 PUSH1 0xA0 SHL SWAP1 DIV PUSH1 0xFF AND ISZERO PUSH2 0xA36 JUMPI PUSH1 0x40 MLOAD PUSH3 0x461BCD PUSH1 0xE5 SHL DUP2 MSTORE PUSH1 0x20 PUSH1 0x4 DUP3 ADD MSTORE PUSH1 0x10 PUSH1 0x24 DUP3 ADD MSTORE PUSH16 0x14185D5CD8589B194E881C185D5CD959 PUSH1 0x82 SHL PUSH1 0x44 DUP3 ADD MSTORE PUSH1 0x64 ADD PUSH2 0x595 JUMP JUMPDEST PUSH0 JUMPDEST PUSH1 0x5 DUP2 LT ISZERO PUSH2 0xF4D JUMPI DUP3 PUSH1 0x1 PUSH1 0x1 PUSH1 0xA0 SHL SUB AND PUSH1 0x5 DUP3 PUSH1 0x5 DUP2 LT PUSH2 0xE0F JUMPI PUSH2 0xE0F PUSH2 0x17A0 JUMP JUMPDEST ADD SLOAD PUSH1 0x1 PUSH1 0x1 PUSH1 0xA0 SHL SUB AND SUB PUSH2 0xF3B JUMPI DUP1 JUMPDEST PUSH1 0x4 DUP2 LT ISZERO PUSH2 0xF14 JUMPI PUSH1 0x5 PUSH2 0xE37 DUP3 PUSH1 0x1 PUSH2 0x17B4 JUMP JUMPDEST PUSH1 0x5 DUP2 LT PUSH2 0xE47 JUMPI PUSH2 0xE47 PUSH2 0x17A0 JUMP JUMPDEST ADD SLOAD PUSH1 0x1 PUSH1 0x1 PUSH1 0xA0 SHL SUB AND PUSH1 0x5 DUP3 DUP2 DUP2 LT PUSH2 0xE64 JUMPI PUSH2 0xE64 PUSH2 0x17A0 JUMP JUMPDEST ADD DUP1 SLOAD PUSH1 0x1 PUSH1 0x1 PUSH1 0xA0 SHL SUB NOT AND PUSH1 0x1 PUSH1 0x1 PUSH1 0xA0 SHL SUB SWAP3 SWAP1 SWAP3 AND SWAP2 SWAP1 SWAP2 OR SWAP1 SSTORE PUSH1 0xA PUSH2 0xE90 DUP3 PUSH1 0x1 PUSH2 0x17B4 JUMP JUMPDEST PUSH1 0x5 DUP2 LT PUSH2 0xEA0 JUMPI PUSH2 0xEA0 PUSH2 0x17A0 JUMP JUMPDEST PUSH1 0x4 SWAP2 DUP3 DUP3 DIV ADD SWAP2 SWAP1 MOD PUSH1 0x8 MUL SWAP1 SLOAD SWAP1 PUSH2 0x100 EXP SWAP1 DIV PUSH1 0x1 PUSH1 0x1 PUSH1 0x40 SHL SUB AND PUSH1 0xA DUP3 PUSH1 0x5 DUP2 LT PUSH2 0xED2 JUMPI PUSH2 0xED2 PUSH2 0x17A0 JUMP JUMPDEST PUSH1 0x4 SWAP2 DUP3 DUP3 DIV ADD SWAP2 SWAP1 MOD PUSH1 0x8 MUL PUSH2 0x100 EXP DUP2 SLOAD DUP2 PUSH1 0x1 PUSH1 0x1 PUSH1 0x40 SHL SUB MUL NOT AND SWAP1 DUP4 PUSH1 0x1 PUSH1 0x1 PUSH1 0x40 SHL SUB AND MUL OR SWAP1 SSTORE POP DUP1 DUP1 PUSH2 0xF0C SWAP1 PUSH2 0x17CD JUMP JUMPDEST SWAP2 POP POP PUSH2 0xE21 JUMP JUMPDEST POP PUSH1 0x9 DUP1 SLOAD PUSH1 0x1 PUSH1 0x1 PUSH1 0xA0 SHL SUB NOT AND SWAP1 SSTORE PUSH1 0xB DUP1 SLOAD PUSH8 0xFFFFFFFFFFFFFFFF NOT AND SWAP1 SSTORE PUSH2 0xF4D JUMP JUMPDEST DUP1 PUSH2 0xF45 DUP2 PUSH2 0x17CD JUMP JUMPDEST SWAP2 POP POP PUSH2 0xDE9 JUMP JUMPDEST POP PUSH1 0xFF PUSH0 JUMPDEST PUSH1 0x5 DUP2 LT ISZERO PUSH2 0x112C JUMPI PUSH1 0xA DUP2 PUSH1 0x5 DUP2 LT PUSH2 0xF6E JUMPI PUSH2 0xF6E PUSH2 0x17A0 JUMP JUMPDEST PUSH1 0x4 SWAP2 DUP3 DUP3 DIV ADD SWAP2 SWAP1 MOD PUSH1 0x8 MUL SWAP1 SLOAD SWAP1 PUSH2 0x100 EXP SWAP1 DIV PUSH1 0x1 PUSH1 0x1 PUSH1 0x40 SHL SUB AND PUSH1 0x1 PUSH1 0x1 PUSH1 0x40 SHL SUB AND DUP4 PUSH1 0x1 PUSH1 0x1 PUSH1 0x40 SHL SUB AND GT ISZERO PUSH2 0x111A JUMPI PUSH1 0x4 JUMPDEST DUP2 DUP2 GT ISZERO PUSH2 0x109B JUMPI PUSH1 0x5 PUSH2 0xFBE PUSH1 0x1 DUP4 PUSH2 0x17E5 JUMP JUMPDEST PUSH1 0x5 DUP2 LT PUSH2 0xFCE JUMPI PUSH2 0xFCE PUSH2 0x17A0 JUMP JUMPDEST ADD SLOAD PUSH1 0x1 PUSH1 0x1 PUSH1 0xA0 SHL SUB AND PUSH1 0x5 DUP3 DUP2 DUP2 LT PUSH2 0xFEB JUMPI PUSH2 0xFEB PUSH2 0x17A0 JUMP JUMPDEST ADD DUP1 SLOAD PUSH1 0x1 PUSH1 0x1 PUSH1 0xA0 SHL SUB NOT AND PUSH1 0x1 PUSH1 0x1 PUSH1 0xA0 SHL SUB SWAP3 SWAP1 SWAP3 AND SWAP2 SWAP1 SWAP2 OR SWAP1 SSTORE PUSH1 0xA PUSH2 0x1017 PUSH1 0x1 DUP4 PUSH2 0x17E5 JUMP JUMPDEST PUSH1 0x5 DUP2 LT PUSH2 0x1027 JUMPI PUSH2 0x1027 PUSH2 0x17A0 JUMP JUMPDEST PUSH1 0x4 SWAP2 DUP3 DUP3 DIV ADD SWAP2 SWAP1 MOD PUSH1 0x8 MUL SWAP1 SLOAD SWAP1 PUSH2 0x100 EXP SWAP1 DIV PUSH1 0x1 PUSH1 0x1 PUSH1 0x40 SHL SUB AND PUSH1 0xA DUP3 PUSH1 0x5 DUP2 LT PUSH2 0x1059 JUMPI PUSH2 0x1059 PUSH2 0x17A0 JUMP JUMPDEST PUSH1 0x4 SWAP2 DUP3 DUP3 DIV ADD SWAP2 SWAP1 MOD PUSH1 0x8 MUL PUSH2 0x100 EXP DUP2 SLOAD DUP2 PUSH1 0x1 PUSH1 0x1 PUSH1 0x40 SHL SUB MUL NOT AND SWAP1 DUP4 PUSH1 0x1 PUSH1 0x1 PUSH1 0x40 SHL SUB AND MUL OR SWAP1 SSTORE POP DUP1 DUP1 PUSH2 0x1093 SWAP1 PUSH2 0x17F8 JUMP JUMPDEST SWAP2 POP POP PUSH2 0xFA9 JUMP JUMPDEST POP DUP4 PUSH1 0x5 DUP3 PUSH1 0x5 DUP2 LT PUSH2 0x10B0 JUMPI PUSH2 0x10B0 PUSH2 0x17A0 JUMP JUMPDEST ADD DUP1 SLOAD PUSH1 0x1 PUSH1 0x1 PUSH1 0xA0 SHL SUB NOT AND PUSH1 0x1 PUSH1 0x1 PUSH1 0xA0 SHL SUB SWAP3 SWAP1 SWAP3 AND SWAP2 SWAP1 SWAP2 OR SWAP1 SSTORE DUP3 PUSH1 0xA DUP3 PUSH1 0x5 DUP2 LT PUSH2 0x10E3 JUMPI PUSH2 0x10E3 PUSH2 0x17A0 JUMP JUMPDEST PUSH1 0x4 SWAP2 DUP3 DUP3 DIV ADD SWAP2 SWAP1 MOD PUSH1 0x8 MUL PUSH2 0x100 EXP DUP2 SLOAD DUP2 PUSH1 0x1 PUSH1 0x1 PUSH1 0x40 SHL SUB MUL NOT AND SWAP1 DUP4 PUSH1 0x1 PUSH1 0x1 PUSH1 0x40 SHL SUB AND MUL OR SWAP1 SSTORE POP DUP1 SWAP2 POP PUSH2 0x112C JUMP JUMPDEST DUP1 PUSH2 0x1124 DUP2 PUSH2 0x17CD JUMP JUMPDEST SWAP2 POP POP PUSH2 0xF52 JUMP JUMPDEST POP PUSH1 0x40 DUP1 MLOAD PUSH1 0x1 PUSH1 0x1 PUSH1 0x40 SHL SUB DUP5 AND DUP2 MSTORE PUSH1 0xFF DUP4 AND PUSH1 0x20 DUP3 ADD MSTORE PUSH1 0x1 PUSH1 0x1 PUSH1 0xA0 SHL SUB DUP6 AND SWAP2 PUSH32 0x461679441452A1D8C0E4C68212E6EBAADF7A1F75512BEC9A6C4CAB452D1953F6 SWAP2 ADD PUSH1 0x40 MLOAD DUP1 SWAP2 SUB SWAP1 LOG2 POP POP POP JUMP JUMPDEST PUSH2 0x1189 PUSH2 0x12B8 JUMP JUMPDEST PUSH0 DUP1 SLOAD PUSH1 0xFF PUSH1 0xA0 SHL NOT AND SWAP1 SSTORE PUSH32 0x5DB9EE0A495BF2E6FF9C91A7834C1BA4FDD244A5E8AA4E537BD38AEAE4B073AA CALLER JUMPDEST PUSH1 0x40 MLOAD PUSH1 0x1 PUSH1 0x1 PUSH1 0xA0 SHL SUB SWAP1 SWAP2 AND DUP2 MSTORE PUSH1 0x20 ADD PUSH1 0x40 MLOAD DUP1 SWAP2 SUB SWAP1 LOG1 JUMP JUMPDEST PUSH0 DUP1 SLOAD PUSH1 0x1 PUSH1 0x1 PUSH1 0xA0 SHL SUB DUP4 DUP2 AND PUSH1 0x1 PUSH1 0x1 PUSH1 0xA0 SHL SUB NOT DUP4 AND DUP2 OR DUP5 SSTORE PUSH1 0x40 MLOAD SWAP2 SWAP1 SWAP3 AND SWAP3 DUP4 SWAP2 PUSH32 0x8BE0079C531659141344CD1FD0A4F28419497F9722A3DAAFE3B4186F6B6457E0 SWAP2 SWAP1 LOG3 POP POP JUMP JUMPDEST PUSH2 0x122C PUSH2 0xD9B JUMP JUMPDEST PUSH0 DUP1 SLOAD PUSH1 0xFF PUSH1 0xA0 SHL NOT AND PUSH1 0x1 PUSH1 0xA0 SHL OR SWAP1 SSTORE PUSH32 0x62E78CEA01BEE320CD4E420270B5EA74000D11B0C9F74754EBDBFC544B05A258 PUSH2 0x11B8 CALLER SWAP1 JUMP JUMPDEST PUSH1 0x40 DUP1 MLOAD PUSH1 0x1 PUSH1 0x1 PUSH1 0xA0 SHL SUB DUP5 AND PUSH1 0x24 DUP3 ADD MSTORE PUSH1 0x44 DUP1 DUP3 ADD DUP5 SWAP1 MSTORE DUP3 MLOAD DUP1 DUP4 SUB SWAP1 SWAP2 ADD DUP2 MSTORE PUSH1 0x64 SWAP1 SWAP2 ADD SWAP1 SWAP2 MSTORE PUSH1 0x20 DUP2 ADD DUP1 MLOAD PUSH1 0x1 PUSH1 0x1 PUSH1 0xE0 SHL SUB AND PUSH4 0xA9059CBB PUSH1 0xE0 SHL OR SWAP1 MSTORE PUSH2 0xB53 SWAP1 DUP5 SWAP1 PUSH2 0x1307 JUMP JUMPDEST PUSH0 SLOAD PUSH1 0x1 PUSH1 0xA0 SHL SWAP1 DIV PUSH1 0xFF AND PUSH2 0xA36 JUMPI PUSH1 0x40 MLOAD PUSH3 0x461BCD PUSH1 0xE5 SHL DUP2 MSTORE PUSH1 0x20 PUSH1 0x4 DUP3 ADD MSTORE PUSH1 0x14 PUSH1 0x24 DUP3 ADD MSTORE PUSH20 0x14185D5CD8589B194E881B9BDD081C185D5CD959 PUSH1 0x62 SHL PUSH1 0x44 DUP3 ADD MSTORE PUSH1 0x64 ADD PUSH2 0x595 JUMP JUMPDEST PUSH0 PUSH2 0x135B DUP3 PUSH1 0x40 MLOAD DUP1 PUSH1 0x40 ADD PUSH1 0x40 MSTORE DUP1 PUSH1 0x20 DUP2 MSTORE PUSH1 0x20 ADD PUSH32 0x5361666545524332303A206C6F772D6C6576656C2063616C6C206661696C6564 DUP2 MSTORE POP DUP6 PUSH1 0x1 PUSH1 0x1 PUSH1 0xA0 SHL SUB AND PUSH2 0x13DA SWAP1 SWAP3 SWAP2 SWAP1 PUSH4 0xFFFFFFFF AND JUMP JUMPDEST SWAP1 POP DUP1 MLOAD PUSH0 EQ DUP1 PUSH2 0x137B JUMPI POP DUP1 DUP1 PUSH1 0x20 ADD SWAP1 MLOAD DUP2 ADD SWAP1 PUSH2 0x137B SWAP2 SWAP1 PUSH2 0x180D JUMP JUMPDEST PUSH2 0xB53 JUMPI PUSH1 0x40 MLOAD PUSH3 0x461BCD PUSH1 0xE5 SHL DUP2 MSTORE PUSH1 0x20 PUSH1 0x4 DUP3 ADD MSTORE PUSH1 0x2A PUSH1 0x24 DUP3 ADD MSTORE PUSH32 0x5361666545524332303A204552433230206F7065726174696F6E20646964206E PUSH1 0x44 DUP3 ADD MSTORE PUSH10 0x1BDD081CDD58D8D95959 PUSH1 0xB2 SHL PUSH1 0x64 DUP3 ADD MSTORE PUSH1 0x84 ADD PUSH2 0x595 JUMP JUMPDEST PUSH1 0x60 PUSH2 0x13E8 DUP5 DUP5 PUSH0 DUP6 PUSH2 0x13F0 JUMP JUMPDEST SWAP5 SWAP4 POP POP POP POP JUMP JUMPDEST PUSH1 0x60 DUP3 SELFBALANCE LT ISZERO PUSH2 0x1451 JUMPI PUSH1 0x40 MLOAD PUSH3 0x461BCD PUSH1 0xE5 SHL DUP2 MSTORE PUSH1 0x20 PUSH1 0x4 DUP3 ADD MSTORE PUSH1 0x26 PUSH1 0x24 DUP3 ADD MSTORE PUSH32 0x416464726573733A20696E73756666696369656E742062616C616E636520666F PUSH1 0x44 DUP3 ADD MSTORE PUSH6 0x1C8818D85B1B PUSH1 0xD2 SHL PUSH1 0x64 DUP3 ADD MSTORE PUSH1 0x84 ADD PUSH2 0x595 JUMP JUMPDEST PUSH0 DUP1 DUP7 PUSH1 0x1 PUSH1 0x1 PUSH1 0xA0 SHL SUB AND DUP6 DUP8 PUSH1 0x40 MLOAD PUSH2 0x146C SWAP2 SWAP1 PUSH2 0x184E JUMP JUMPDEST PUSH0 PUSH1 0x40 MLOAD DUP1 DUP4 SUB DUP2 DUP6 DUP8 GAS CALL SWAP3 POP POP POP RETURNDATASIZE DUP1 PUSH0 DUP2 EQ PUSH2 0x14A6 JUMPI PUSH1 0x40 MLOAD SWAP2 POP PUSH1 0x1F NOT PUSH1 0x3F RETURNDATASIZE ADD AND DUP3 ADD PUSH1 0x40 MSTORE RETURNDATASIZE DUP3 MSTORE RETURNDATASIZE PUSH0 PUSH1 0x20 DUP5 ADD RETURNDATACOPY PUSH2 0x14AB JUMP JUMPDEST PUSH1 0x60 SWAP2 POP JUMPDEST POP SWAP2 POP SWAP2 POP PUSH2 0x14BC DUP8 DUP4 DUP4 DUP8 PUSH2 0x14C7 JUMP JUMPDEST SWAP8 SWAP7 POP POP POP POP POP POP POP JUMP JUMPDEST PUSH1 0x60 DUP4 ISZERO PUSH2 0x1535 JUMPI DUP3 MLOAD PUSH0 SUB PUSH2 0x152E JUMPI PUSH1 0x1 PUSH1 0x1 PUSH1 0xA0 SHL SUB DUP6 AND EXTCODESIZE PUSH2 0x152E JUMPI PUSH1 0x40 MLOAD PUSH3 0x461BCD PUSH1 0xE5 SHL DUP2 MSTORE PUSH1 0x20 PUSH1 0x4 DUP3 ADD MSTORE PUSH1 0x1D PUSH1 0x24 DUP3 ADD MSTORE PUSH32 0x416464726573733A2063616C6C20746F206E6F6E2D636F6E7472616374000000 PUSH1 0x44 DUP3 ADD MSTORE PUSH1 0x64 ADD PUSH2 0x595 JUMP JUMPDEST POP DUP2 PUSH2 0x13E8 JUMP JUMPDEST PUSH2 0x13E8 DUP4 DUP4 DUP2 MLOAD ISZERO PUSH2 0x154A JUMPI DUP2 MLOAD DUP1 DUP4 PUSH1 0x20 ADD REVERT JUMPDEST DUP1 PUSH1 0x40 MLOAD PUSH3 0x461BCD PUSH1 0xE5 SHL DUP2 MSTORE PUSH1 0x4 ADD PUSH2 0x595 SWAP2 SWAP1 PUSH2 0x1869 JUMP JUMPDEST PUSH1 0x40 MLOAD DUP1 PUSH1 0xA0 ADD PUSH1 0x40 MSTORE DUP1 PUSH1 0x5 SWAP1 PUSH1 0x20 DUP3 MUL DUP1 CALLDATASIZE DUP4 CALLDATACOPY POP SWAP2 SWAP3 SWAP2 POP POP JUMP JUMPDEST PUSH1 0x1 PUSH1 0x1 PUSH1 0xA0 SHL SUB DUP2 AND DUP2 EQ PUSH2 0xC84 JUMPI PUSH0 DUP1 REVERT JUMPDEST PUSH0 DUP1 PUSH1 0x40 DUP4 DUP6 SUB SLT ISZERO PUSH2 0x15A7 JUMPI PUSH0 DUP1 REVERT JUMPDEST DUP3 CALLDATALOAD PUSH2 0x15B2 DUP2 PUSH2 0x1582 JUMP JUMPDEST SWAP5 PUSH1 0x20 SWAP4 SWAP1 SWAP4 ADD CALLDATALOAD SWAP4 POP POP POP JUMP JUMPDEST DUP1 CALLDATALOAD PUSH1 0x1 PUSH1 0x1 PUSH1 0x40 SHL SUB DUP2 AND DUP2 EQ PUSH2 0x15D6 JUMPI PUSH0 DUP1 REVERT JUMPDEST SWAP2 SWAP1 POP JUMP JUMPDEST PUSH0 PUSH1 0x20 DUP3 DUP5 SUB SLT ISZERO PUSH2 0x15EB JUMPI PUSH0 DUP1 REVERT JUMPDEST PUSH2 0x15F4 DUP3 PUSH2 0x15C0 JUMP JUMPDEST SWAP4 SWAP3 POP POP POP JUMP JUMPDEST PUSH0 DUP1 PUSH0 DUP1 PUSH1 0x80 DUP6 DUP8 SUB SLT ISZERO PUSH2 0x160E JUMPI PUSH0 DUP1 REVERT JUMPDEST PUSH2 0x1617 DUP6 PUSH2 0x15C0 JUMP JUMPDEST SWAP4 POP PUSH1 0x20 DUP6 ADD CALLDATALOAD SWAP3 POP PUSH2 0x162C PUSH1 0x40 DUP7 ADD PUSH2 0x15C0 JUMP JUMPDEST SWAP2 POP PUSH2 0x163A PUSH1 0x60 DUP7 ADD PUSH2 0x15C0 JUMP JUMPDEST SWAP1 POP SWAP3 SWAP6 SWAP2 SWAP5 POP SWAP3 POP JUMP JUMPDEST PUSH0 PUSH1 0x20 DUP3 DUP5 SUB SLT ISZERO PUSH2 0x1655 JUMPI PUSH0 DUP1 REVERT JUMPDEST DUP2 CALLDATALOAD PUSH1 0xFF DUP2 AND DUP2 EQ PUSH2 0x15F4 JUMPI PUSH0 DUP1 REVERT JUMPDEST PUSH0 PUSH1 0x20 DUP3 DUP5 SUB SLT ISZERO PUSH2 0x1675 JUMPI PUSH0 DUP1 REVERT JUMPDEST DUP2 CALLDATALOAD PUSH2 0x15F4 DUP2 PUSH2 0x1582 JUMP JUMPDEST PUSH0 PUSH1 0x20 DUP3 DUP5 SUB SLT ISZERO PUSH2 0x1690 JUMPI PUSH0 DUP1 REVERT JUMPDEST POP CALLDATALOAD SWAP2 SWAP1 POP JUMP JUMPDEST PUSH0 DUP1 PUSH0 PUSH1 0x60 DUP5 DUP7 SUB SLT ISZERO PUSH2 0x16A9 JUMPI PUSH0 DUP1 REVERT JUMPDEST DUP4 CALLDATALOAD PUSH2 0x16B4 DUP2 PUSH2 0x1582 JUMP JUMPDEST SWAP3 POP PUSH1 0x20 DUP5 ADD CALLDATALOAD PUSH2 0x16C4 DUP2 PUSH2 0x1582 JUMP JUMPDEST SWAP3 SWAP6 SWAP3 SWAP5 POP POP POP PUSH1 0x40 SWAP2 SWAP1 SWAP2 ADD CALLDATALOAD SWAP1 JUMP JUMPDEST PUSH2 0x140 DUP2 ADD DUP2 DUP5 PUSH0 JUMPDEST PUSH1 0x5 DUP2 LT ISZERO PUSH2 0x1706 JUMPI DUP2 MLOAD PUSH1 0x1 PUSH1 0x1 PUSH1 0xA0 SHL SUB AND DUP4 MSTORE PUSH1 0x20 SWAP3 DUP4 ADD SWAP3 SWAP1 SWAP2 ADD SWAP1 PUSH1 0x1 ADD PUSH2 0x16DE JUMP JUMPDEST POP POP POP PUSH1 0xA0 DUP3 ADD DUP4 PUSH0 JUMPDEST PUSH1 0x5 DUP2 LT ISZERO PUSH2 0x1738 JUMPI DUP2 MLOAD PUSH1 0x1 PUSH1 0x1 PUSH1 0x40 SHL SUB AND DUP4 MSTORE PUSH1 0x20 SWAP3 DUP4 ADD SWAP3 SWAP1 SWAP2 ADD SWAP1 PUSH1 0x1 ADD PUSH2 0x1710 JUMP JUMPDEST POP POP POP SWAP4 SWAP3 POP POP POP JUMP JUMPDEST PUSH0 PUSH1 0x20 DUP3 DUP5 SUB SLT ISZERO PUSH2 0x1752 JUMPI PUSH0 DUP1 REVERT JUMPDEST DUP2 CALLDATALOAD PUSH4 0xFFFFFFFF DUP2 AND DUP2 EQ PUSH2 0x15F4 JUMPI PUSH0 DUP1 REVERT JUMPDEST PUSH4 0x4E487B71 PUSH1 0xE0 SHL PUSH0 MSTORE PUSH1 0x11 PUSH1 0x4 MSTORE PUSH1 0x24 PUSH0 REVERT JUMPDEST PUSH1 0x1 PUSH1 0x1 PUSH1 0x40 SHL SUB DUP2 DUP2 AND DUP4 DUP3 AND ADD SWAP1 DUP1 DUP3 GT ISZERO PUSH2 0x1799 JUMPI PUSH2 0x1799 PUSH2 0x1765 JUMP JUMPDEST POP SWAP3 SWAP2 POP POP JUMP JUMPDEST PUSH4 0x4E487B71 PUSH1 0xE0 SHL PUSH0 MSTORE PUSH1 0x32 PUSH1 0x4 MSTORE PUSH1 0x24 PUSH0 REVERT JUMPDEST DUP1 DUP3 ADD DUP1 DUP3 GT ISZERO PUSH2 0x17C7 JUMPI PUSH2 0x17C7 PUSH2 0x1765 JUMP JUMPDEST SWAP3 SWAP2 POP POP JUMP JUMPDEST PUSH0 PUSH1 0x1 DUP3 ADD PUSH2 0x17DE JUMPI PUSH2 0x17DE PUSH2 0x1765 JUMP JUMPDEST POP PUSH1 0x1 ADD SWAP1 JUMP JUMPDEST DUP2 DUP2 SUB DUP2 DUP2 GT ISZERO PUSH2 0x17C7 JUMPI PUSH2 0x17C7 PUSH2 0x1765 JUMP JUMPDEST PUSH0 DUP2 PUSH2 0x1806 JUMPI PUSH2 0x1806 PUSH2 0x1765 JUMP JUMPDEST POP PUSH0 NOT ADD SWAP1 JUMP JUMPDEST PUSH0 PUSH1 0x20 DUP3 DUP5 SUB SLT ISZERO PUSH2 0x181D JUMPI PUSH0 DUP1 REVERT JUMPDEST DUP2 MLOAD DUP1 ISZERO ISZERO DUP2 EQ PUSH2 0x15F4 JUMPI PUSH0 DUP1 REVERT JUMPDEST PUSH0 JUMPDEST DUP4 DUP2 LT ISZERO PUSH2 0x1846 JUMPI DUP2 DUP2 ADD MLOAD DUP4 DUP3 ADD MSTORE PUSH1 0x20 ADD PUSH2 0x182E JUMP JUMPDEST POP POP PUSH0 SWAP2 ADD MSTORE JUMP JUMPDEST PUSH0 DUP3 MLOAD PUSH2 0x185F DUP2 DUP5 PUSH1 0x20 DUP8 ADD PUSH2 0x182C JUMP JUMPDEST SWAP2 SWAP1 SWAP2 ADD SWAP3 SWAP2 POP POP JUMP JUMPDEST PUSH1 0x20 DUP2 MSTORE PUSH0 DUP3 MLOAD DUP1 PUSH1 0x20 DUP5 ADD MSTORE PUSH2 0x1887 DUP2 PUSH1 0x40 DUP6 ADD PUSH1 0x20 DUP8 ADD PUSH2 0x182C JUMP JUMPDEST PUSH1 0x1F ADD PUSH1 0x1F NOT AND SWAP2 SWAP1 SWAP2 ADD PUSH1 0x40 ADD SWAP3 SWAP2 POP POP JUMP INVALID LOG2 PUSH5 0x6970667358 0x22 SLT KECCAK256 OR PUSH19 0xE28A03D8D2F8F117DE7838C8C1BB409ECA28A4 SWAP13 DUP3 MSTORE SWAP7 0xED SIGNEXTEND PUSH2 0xD604 0x2F 0xE PUSH5 0x736F6C6343 STOP ADDMOD EQ STOP CALLER "
		},
		"gasEstimates": {
			"creation": {
				"codeDepositCost": "1270600",
				"executionCost": "infinite",
				"totalCost": "infinite"
			},
			"external": {
				"adminClearTop5()": "39140",
				"cooldownSeconds()": "2440",
				"difficulty()": "2347",
				"getPlayer(address)": "5228",
				"getTop5()": "infinite",
				"maxScorePerRun()": "2413",
				"owner()": "2344",
				"pause()": "infinite",
				"paused()": "2397",
				"players(address)": "4893",
				"renounceOwnership()": "infinite",
				"rescueERC20(address,address,uint256)": "infinite",
				"rescueETH(address,uint256)": "infinite",
				"setCooldown(uint32)": "27859",
				"setDifficulty(uint8)": "27803",
				"setMaxScorePerRun(uint64)": "27921",
				"submitScore(uint64,bytes32,uint64,uint64)": "infinite",
				"transferOwnership(address)": "infinite",
				"unpause()": "infinite",
				"usedRunIds(bytes32)": "2514"
			},
			"internal": {
				"_updateTop5(address,uint64)": "infinite"
			}
		},
		"methodIdentifiers": {
			"adminClearTop5()": "1be3e28b",
			"cooldownSeconds()": "b8221bc4",
			"difficulty()": "19cae462",
			"getPlayer(address)": "5c12cd4b",
			"getTop5()": "e8de2ab4",
			"maxScorePerRun()": "f1605b7f",
			"owner()": "8da5cb5b",
			"pause()": "8456cb59",
			"paused()": "5c975abb",
			"players(address)": "e2eb41ff",
			"renounceOwnership()": "715018a6",
			"rescueERC20(address,address,uint256)": "b2118a8d",
			"rescueETH(address,uint256)": "099a04e5",
			"setCooldown(uint32)": "f8718c5a",
			"setDifficulty(uint8)": "58220236",
			"setMaxScorePerRun(uint64)": "30923fef",
			"submitScore(uint64,bytes32,uint64,uint64)": "3c9799a9",
			"transferOwnership(address)": "f2fde38b",
			"unpause()": "3f4ba83a",
			"usedRunIds(bytes32)": "9b9735d8"
		}
	},
	"abi": [
		{
			"inputs": [
				{
					"internalType": "uint8",
					"name": "initialDifficulty",
					"type": "uint8"
				}
			],
			"stateMutability": "nonpayable",
			"type": "constructor"
		},
		{
			"anonymous": false,
			"inputs": [
				{
					"indexed": false,
					"internalType": "uint32",
					"name": "seconds_",
					"type": "uint32"
				}
			],
			"name": "CooldownSet",
			"type": "event"
		},
		{
			"anonymous": false,
			"inputs": [
				{
					"indexed": false,
					"internalType": "uint8",
					"name": "level",
					"type": "uint8"
				}
			],
			"name": "DifficultySet",
			"type": "event"
		},
		{
			"anonymous": false,
			"inputs": [
				{
					"indexed": false,
					"internalType": "uint64",
					"name": "maxScore",
					"type": "uint64"
				}
			],
			"name": "MaxScorePerRunSet",
			"type": "event"
		},
		{
			"anonymous": false,
			"inputs": [
				{
					"indexed": true,
					"internalType": "address",
					"name": "previousOwner",
					"type": "address"
				},
				{
					"indexed": true,
					"internalType": "address",
					"name": "newOwner",
					"type": "address"
				}
			],
			"name": "OwnershipTransferred",
			"type": "event"
		},
		{
			"anonymous": false,
			"inputs": [
				{
					"indexed": false,
					"internalType": "address",
					"name": "account",
					"type": "address"
				}
			],
			"name": "Paused",
			"type": "event"
		},
		{
			"anonymous": false,
			"inputs": [
				{
					"indexed": true,
					"internalType": "address",
					"name": "player",
					"type": "address"
				},
				{
					"indexed": false,
					"internalType": "uint64",
					"name": "score",
					"type": "uint64"
				},
				{
					"indexed": true,
					"internalType": "bytes32",
					"name": "runId",
					"type": "bytes32"
				},
				{
					"indexed": false,
					"internalType": "uint8",
					"name": "difficultyHint",
					"type": "uint8"
				},
				{
					"indexed": false,
					"internalType": "uint64",
					"name": "startedAt",
					"type": "uint64"
				},
				{
					"indexed": false,
					"internalType": "uint64",
					"name": "endedAt",
					"type": "uint64"
				},
				{
					"indexed": false,
					"internalType": "uint64",
					"name": "submittedAt",
					"type": "uint64"
				}
			],
			"name": "ScoreSubmitted",
			"type": "event"
		},
		{
			"anonymous": false,
			"inputs": [
				{
					"indexed": true,
					"internalType": "address",
					"name": "player",
					"type": "address"
				},
				{
					"indexed": false,
					"internalType": "uint64",
					"name": "newBest",
					"type": "uint64"
				},
				{
					"indexed": false,
					"internalType": "uint8",
					"name": "index",
					"type": "uint8"
				}
			],
			"name": "Top5Updated",
			"type": "event"
		},
		{
			"anonymous": false,
			"inputs": [
				{
					"indexed": false,
					"internalType": "address",
					"name": "account",
					"type": "address"
				}
			],
			"name": "Unpaused",
			"type": "event"
		},
		{
			"inputs": [],
			"name": "adminClearTop5",
			"outputs": [],
			"stateMutability": "nonpayable",
			"type": "function"
		},
		{
			"inputs": [],
			"name": "cooldownSeconds",
			"outputs": [
				{
					"internalType": "uint32",
					"name": "",
					"type": "uint32"
				}
			],
			"stateMutability": "view",
			"type": "function"
		},
		{
			"inputs": [],
			"name": "difficulty",
			"outputs": [
				{
					"internalType": "uint8",
					"name": "",
					"type": "uint8"
				}
			],
			"stateMutability": "view",
			"type": "function"
		},
		{
			"inputs": [
				{
					"internalType": "address",
					"name": "player",
					"type": "address"
				}
			],
			"name": "getPlayer",
			"outputs": [
				{
					"components": [
						{
							"internalType": "uint64",
							"name": "bestScore",
							"type": "uint64"
						},
						{
							"internalType": "uint64",
							"name": "lastScore",
							"type": "uint64"
						},
						{
							"internalType": "uint32",
							"name": "runs",
							"type": "uint32"
						},
						{
							"internalType": "uint64",
							"name": "lastPlayedAt",
							"type": "uint64"
						},
						{
							"internalType": "bytes32",
							"name": "lastRunId",
							"type": "bytes32"
						}
					],
					"internalType": "struct FishtankGameStateLiteTop5.Player",
					"name": "",
					"type": "tuple"
				}
			],
			"stateMutability": "view",
			"type": "function"
		},
		{
			"inputs": [],
			"name": "getTop5",
			"outputs": [
				{
					"internalType": "address[5]",
					"name": "addrs",
					"type": "address[5]"
				},
				{
					"internalType": "uint64[5]",
					"name": "scores",
					"type": "uint64[5]"
				}
			],
			"stateMutability": "view",
			"type": "function"
		},
		{
			"inputs": [],
			"name": "maxScorePerRun",
			"outputs": [
				{
					"internalType": "uint64",
					"name": "",
					"type": "uint64"
				}
			],
			"stateMutability": "view",
			"type": "function"
		},
		{
			"inputs": [],
			"name": "owner",
			"outputs": [
				{
					"internalType": "address",
					"name": "",
					"type": "address"
				}
			],
			"stateMutability": "view",
			"type": "function"
		},
		{
			"inputs": [],
			"name": "pause",
			"outputs": [],
			"stateMutability": "nonpayable",
			"type": "function"
		},
		{
			"inputs": [],
			"name": "paused",
			"outputs": [
				{
					"internalType": "bool",
					"name": "",
					"type": "bool"
				}
			],
			"stateMutability": "view",
			"type": "function"
		},
		{
			"inputs": [
				{
					"internalType": "address",
					"name": "",
					"type": "address"
				}
			],
			"name": "players",
			"outputs": [
				{
					"internalType": "uint64",
					"name": "bestScore",
					"type": "uint64"
				},
				{
					"internalType": "uint64",
					"name": "lastScore",
					"type": "uint64"
				},
				{
					"internalType": "uint32",
					"name": "runs",
					"type": "uint32"
				},
				{
					"internalType": "uint64",
					"name": "lastPlayedAt",
					"type": "uint64"
				},
				{
					"internalType": "bytes32",
					"name": "lastRunId",
					"type": "bytes32"
				}
			],
			"stateMutability": "view",
			"type": "function"
		},
		{
			"inputs": [],
			"name": "renounceOwnership",
			"outputs": [],
			"stateMutability": "nonpayable",
			"type": "function"
		},
		{
			"inputs": [
				{
					"internalType": "address",
					"name": "token",
					"type": "address"
				},
				{
					"internalType": "address",
					"name": "to",
					"type": "address"
				},
				{
					"internalType": "uint256",
					"name": "amount",
					"type": "uint256"
				}
			],
			"name": "rescueERC20",
			"outputs": [],
			"stateMutability": "nonpayable",
			"type": "function"
		},
		{
			"inputs": [
				{
					"internalType": "address payable",
					"name": "to",
					"type": "address"
				},
				{
					"internalType": "uint256",
					"name": "amount",
					"type": "uint256"
				}
			],
			"name": "rescueETH",
			"outputs": [],
			"stateMutability": "nonpayable",
			"type": "function"
		},
		{
			"inputs": [
				{
					"internalType": "uint32",
					"name": "seconds_",
					"type": "uint32"
				}
			],
			"name": "setCooldown",
			"outputs": [],
			"stateMutability": "nonpayable",
			"type": "function"
		},
		{
			"inputs": [
				{
					"internalType": "uint8",
					"name": "level",
					"type": "uint8"
				}
			],
			"name": "setDifficulty",
			"outputs": [],
			"stateMutability": "nonpayable",
			"type": "function"
		},
		{
			"inputs": [
				{
					"internalType": "uint64",
					"name": "maxScore",
					"type": "uint64"
				}
			],
			"name": "setMaxScorePerRun",
			"outputs": [],
			"stateMutability": "nonpayable",
			"type": "function"
		},
		{
			"inputs": [
				{
					"internalType": "uint64",
					"name": "score",
					"type": "uint64"
				},
				{
					"internalType": "bytes32",
					"name": "runId",
					"type": "bytes32"
				},
				{
					"internalType": "uint64",
					"name": "startedAt",
					"type": "uint64"
				},
				{
					"internalType": "uint64",
					"name": "endedAt",
					"type": "uint64"
				}
			],
			"name": "submitScore",
			"outputs": [],
			"stateMutability": "nonpayable",
			"type": "function"
		},
		{
			"inputs": [
				{
					"internalType": "address",
					"name": "newOwner",
					"type": "address"
				}
			],
			"name": "transferOwnership",
			"outputs": [],
			"stateMutability": "nonpayable",
			"type": "function"
		},
		{
			"inputs": [],
			"name": "unpause",
			"outputs": [],
			"stateMutability": "nonpayable",
			"type": "function"
		},
		{
			"inputs": [
				{
					"internalType": "bytes32",
					"name": "",
					"type": "bytes32"
				}
			],
			"name": "usedRunIds",
			"outputs": [
				{
					"internalType": "bool",
					"name": "",
					"type": "bool"
				}
			],
			"stateMutability": "view",
			"type": "function"
		},
		{
			"stateMutability": "payable",
			"type": "receive"
		}
	]
}